:020000040800F2
:100000000050002055020008A5020008A5020008C3
:10001000A5020008A5020008A502000800000000D3
:10002000000000000000000000000000A502000821
:10003000A502000800000000A5020008A5020008B3
:10004000A5020008A5020008A5020008A5020008F4
:10005000A5020008A5020008A5020008A5020008E4
:10006000A5020008A5020008A5020008A5020008D4
:10007000A5020008A5020008A5020008A5020008C4
:10008000A5020008A5020008A5020008A5020008B4
:10009000A5020008A5020008A5020008A5020008A4
:1000A000A5020008A5020008A5020008A502000894
:1000B000A5020008A5020008A5020008A502000884
:1000C000A5020008A5020008A5020008A502000874
:1000D000A5020008A5020008A5020008A502000864
:1000E000A5020008A502000800000000A502000803
:1000F000A5020008A5020008A5020008A502000844
:10010000A5020008A5020008A5020008A502000833
:10011000A5020008A5020008A5020008A502000823
:10012000A5020008A5020008A5020008A502000813
:1001300010B5054C237833B9044B13B10448AFF321
:1001400000800123237010BD00000020000000008B
:10015000F002000808B5034B1BB103490348AFF395
:10016000008008BD0000000004000020F00200082C
:1001700080B485B000AF78600023FB6002E0FB68CC
:100180000133FB60FB687A689A42F8D800BF00BF71
:100190001437BD4680BC704780B500AF294B1B6843
:1001A000284A43F010031360274B1B68264A23F4A8
:1001B00040731360244B1B68234A43F4306313607D
:1001C000214B1B68204A23F4406313601E4B1E4AD8
:1001D0001B6813601C4B1B681B4A23F440531360BD
:1001E000194B194A1B681360174B1B68164A23F4F6
:1001F00040431360144B1B68134A43F420331360CD
:10020000124B1B68114A23F4006313600E4B1B68EA
:100210000D4A23F4700313600B4B1B680A4A43F426
:1002200080131360084B084A1B681360074B1B6858
:10023000064A83F4005313600548FFF799FF00BF97
:10024000F4E700BF18100240041001400C100140F8
:1002500040420F000D488546AFF300800C480D4921
:100260000D4A002302E0D458C4500433C4188C4211
:10027000F9D30A4A0A4C002301E013600432A24277
:10028000FBD300F011F8FFF787FFFEE700500020D6
:1002900000000020000000201003000800000020E3
:1002A0001C000020FEE7000070B500260C4D0D4C30
:1002B000641BA410A64209D100F01AF800260A4DCA
:1002C0000A4C641BA410A64205D170BD55F8043B2E
:1002D00098470136EEE755F8043B98470136F2E7B8
:1002E0000803000808030008080300080C030008BE
:1002F000F8B500BFF8BC08BC9E467047F8B500BF13
:08030000F8BC08BC9E467047E2
:040308005501000893
:04030C0031010008B3
:040000050800025598
:00000001FF
