:020000040800F2
:10000000005000204D0400089D0400089D040008D5
:100010009D0400089D0400089D04000800000000E5
:100020000000000000000000000000009D04000827
:100030009D040008000000009D0400089D040008C5
:100040009D0400089D0400089D0400089D0400080C
:100050009D0400089D0400089D040008F1030008A9
:100060009D0400089D0400089D0400089D040008EC
:100070009D0400089D0400089D0400089D040008DC
:100080009D0400089D0400089D0400089D040008CC
:100090009D0400089D0400089D0400089D040008BC
:1000A0009D0400089D0400089D0400089D040008AC
:1000B0009D0400089D0400089D0400089D0400089C
:1000C0009D0400089D0400089D0400089D0400088C
:1000D0009D0400089D0400089D0400089D0400087C
:1000E0009D0400089D040008000000009D04000815
:1000F0009D0400089D0400089D0400089D0400085C
:100100009D0400089D0400089D0400089D0400084B
:100110009D0400089D0400089D0400089D0400083B
:100120009D0400089D0400089D0400089D0400082B
:1001300010B5054C237833B9044B13B10448AFF321
:1001400000800123237010BD00000020000000008B
:10015000E804000808B5034B1BB103490348AFF39B
:10016000008008BD0000000004000020E804000832
:1001700080B500AF00F00AF800F034F800F0C0F8E5
:1001800000F0F4F800F034F9FCE7000080B400AFB0
:10019000134B5B6A002B19DB114B5B6A03F0804346
:1001A000002B13D10E4B5B6A03F00053002B0DD1D3
:1001B0000B4B5B6A03F08053002B07D1084B5B6A43
:1001C00003F00063002B01D1054B5B6A044B5B6AB3
:1001D000034A43F08073536200BFBD4680BC704742
:1001E0000010024080B400AF434B1B68424A43F406
:1001F0008033136000BF404B1B6803F40033002BB7
:10020000F9D03E4B1B683D4A43F01003136000BF1A
:100210003A4B1B6803F02003002BF9D0374B1B68C7
:10022000364A23F007031360344B1B68334A43F00C
:1002300002031360304B5B682F4A23F4E063536082
:100240002D4B5B682C4A43F4806353602A4B5B68F8
:10025000294A23F460535360274B5B68264A23F4F2
:1002600080035360244B5B68234A63F4404353602C
:10027000214B5B68204A23F0F00353601E4B5B6800
:100280001D4A23F4003353601B4B5B681A4A43F446
:1002900080335360184B5B68174A23F47013536024
:1002A000154B5B68144A43F4E0135360124B1B6810
:1002B000114A43F08073136000BF0F4B1B6803F0BB
:1002C0000073002BF9D00C4B5B680B4A23F003033F
:1002D0005360094B5B68084A43F00203536000BF58
:1002E000054B5B6803F00803002BF9D000BF00BF8B
:1002F000BD4680BC704700BF001002400020024095
:1003000080B400AF164B9B69154A43F024039361F8
:10031000134B9B69124A43F480639361114B1B6832
:10032000104A23F4700313600E4B1B680D4A43F40C
:10033000001313600C4B5B680B4A23F4700353608B
:10034000094B5B68084A43F440135360064B5B68F3
:10035000054A23F44003536000BFBD4680BC70478C
:1003600000100240000801400010014080B400AFBE
:100370000E4B9B690D4A43F0010393610C4B9B6844
:100380000B4A23F00F039360094B094A9B68936063
:10039000084B9B68074B00229A60064B054ADB68B6
:1003A000D36000BFBD4680BC704700BF0010024054
:1003B000000001400004014080B485B000AF7860C7
:1003C0000023FB6009E00023FB6002E0FB680133CF
:1003D000FB60FB68B3F5487FF8D37B685A1E7A60F0
:1003E000002BF0D100BF00BF1437BD4680BC704762
:1003F00080B500AF124B5B6903F00103002B12D0F4
:100400000F4B01225A610F4BDB680E4A83F40053F5
:10041000D36042F21070FFF7CFFF0B4B1B68013324
:10042000094A136009E0074BDB68064A83F400536E
:10043000D3604FF47A70FFF7BFFF00BF80BD00BFED
:1004400000040140001001401C0000200D488546BA
:10045000AFF300800C480D490D4A002302E0D45848
:10046000C4500433C4188C42F9D30A4A0A4C0023FE
:1004700001E013600432A242FBD300F011F8FFF751
:1004800077FEFEE700500020000000200000002062
:10049000080500080000002020000020FEE7000002
:1004A00070B500260C4D0D4C641BA410A64209D15A
:1004B00000F01AF800260A4D0A4C641BA410A6424C
:1004C00005D170BD55F8043B98470136EEE755F865
:1004D000043B98470136F2E70005000800050008D4
:1004E0000005000804050008F8B500BFF8BC08BC0A
:1004F0009E467047F8B500BFF8BC08BC9E467047E2
:040500005501000899
:0405040031010008B9
:040000050800044D9E
:00000001FF
